:020000040800F2
:10000000D8070020A1010008A71A00089F1A0008BD
:10001000A31A0008890E0008091F0008000000004C
:10002000000000000000000000000000FD1E0008AD
:100030008D0E000800000000191E0008FF1E0008B9
:10004000BB010008BB010008BB010008BB010008A0
:10005000BB010008BB010008BB010008BB01000890
:10006000BB010008BB010008BB010008BB01000880
:10007000BB010008BB010008BB010008BB01000870
:10008000BB010008BB010008BB010008BB01000860
:10009000BB010008BB010008BB010008BB01000850
:1000A000BB010008BB010008BB010008BB01000840
:1000B000BB010008BB010008BB010008BB01000830
:1000C000BB010008BB010008BB010008BB01000820
:1000D000BB010008BB010008BB010008BB01000810
:1000E000BB010008BB010008BB01000800F002F8DA
:1000F00000F047F80AA090E8000C82448344AAF17B
:100100000107DA4501D100F03CF8AFF2090EBAE878
:100110000F0013F0010F18BFFB1A43F0010318473B
:10012000A0280000C0280000103A24BF78C878C179
:10013000FAD8520724BF30C830C144BF04680C60ED
:10014000704700000023002400250026103A28BF35
:1001500078C1FBD8520728BF30C148BF0B60704739
:10016000642900F07D80002070471FB59DE80300E2
:1001700000F05CFC00F062F91FBD10B500F0C7F99B
:1001800010BD00F02AFA1146FFF7EFFF01F044FF1F
:1001900000F01AFC03B4FFF7F0FF03BC00F0D8FD39
:1001A0000948804709480047FEE7FEE7FEE7FEE70B
:1001B000FEE7FEE7FEE7FEE7FEE7FEE70448054947
:1001C000054A064B70470000071F0008ED000008B5
:1001D000D8010020D8070020D8030020D803002031
:1001E0000FB4044910B503AA029800F0F9F810BC46
:1001F0005DF814FBD00000202DE9F0410E460446C6
:10020000002020622046E168884730B3252805D0C9
:10021000D4E901219047206A401CF2E7E1682046BA
:1002200000278847050018D0A5F14100192802D8F9
:1002300020354FF400673246294620462760FFF7F5
:100240008FFF40B1012804D0F61D26F007060836BE
:10025000D8E7361DD6E72846DAE7206ABDE8F08100
:100260002DE9F0410646002410687529314616A58F
:1002700010D0AFF30080002802DA404213A507E057
:1002800031688A0701D512A502E0490704D511A5F6
:10029000012401E0AFF3008000210A2206F12407C7
:1002A00009E0B0FBF2FCB0FBF2F302FB1C003030C3
:1002B00078541846491C0028F3D123462A46304674
:1002C000BDE8F04100F032B8000000002D00000051
:1002D0002B000000200000004FF0000200B5134684
:1002E00094469646203922BFA0E80C50A0E80C5056
:1002F000B1F12001BFF4F7AF090728BFA0E80C5007
:1003000048BF0CC05DF804EB890028BF40F8042BFF
:1003100008BF704748BF20F8022B11F0804F18BF6C
:1003200000F8012B70477047704770472DE9F04780
:100330000D4699469246044600F124080168880655
:1003400004D5E06921F01001216000E00120A842FD
:1003500001DD471B00E00027A1697A1902EB0900C3
:10036000081AA0612078C00602D42046AFF30080AE
:10037000002608E0D4E901211AF806009047206A17
:10038000401C761C20624E45F4DB2078C0060AD55E
:100390002046AFF3008006E0D4E9012130209047E9
:1003A000206A401C2062381EA7F10107F4DC07E038
:1003B000D4E9012118F805009047206A401C20620A
:1003C000281EA5F10105F3DC2046AFF3008020785C
:1003D000000602D50220BDE8F0870120FBE70000FF
:1003E000074B70B50D467B4400F011F804462846D3
:1003F00000F020F810B14FF0FF3070BD204670BD06
:10040000C31B000001694A1C02610878704700B5EF
:100410008FB0CDE901310021059105497944CDE93D
:10042000031011466846FFF7E7FE0FB000BD00005D
:10043000E5FFFFFF007B00F08000704710B54248E9
:100440005421FFF749FF41485421FFF745FF404839
:100450005421FFF741FF3F493B483C4A3F4B08606E
:100460003D490A603A491960531C0365481C1065F0
:10047000012008653B48344A39A1784400F008FA65
:1004800020B9384878440A3800F0A7FA37482F4A8C
:1004900035A1784400F0FCF920B9344878440A3892
:1004A00000F09BFA32482A4A2FA1784400F0F0F974
:1004B00020B92F4878440A3800F08FFA40232248A8
:1004C000DC000021224600F0BFF920B12548784425
:1004D000543800F082FA1D4822464023002100F0E3
:1004E000B3F920B121487844543800F076FA18481E
:1004F00022461023002100F0A7F9002806D01C484E
:100500007844BDE81040563800F067BA10BD104876
:1005100070B5006D20F001040B4800F02FFA0B4875
:1005200000F02CFA0A4800F029FA09E0206D20F0CA
:100530000105204600F022FA204600F073F82C4610
:10054000002CF3D170BD00007C000020D000002002
:1005500024010020180000201C00002020000020A2
:100560007200000036250000770000002225000000
:100570000E2500000EB5CDE9000100F0C9FB029088
:1005800069460120ABBE0EBD08B569460090022049
:10059000ABBE08BD1FB58DE8070069460520ABBEA0
:1005A00004B010BD1FB58DE80F0069460620ABBE34
:1005B000F6E708B5694600900920ABBE08BD1CB53A
:1005C000CDE9000169460A20ABBE1CBD704708B5E5
:1005D000694600900C20ABBE08BD754600F004FAD9
:1005E000AE4605006946534620F00700854618B020
:1005F00020B5FFF7E3FDBDE820404FF000064FF0C7
:1006000000074FF000084FF0000B21F00701AC4647
:10061000ACE8C009ACE8C009ACE8C009ACE8C00966
:100620008D46704770B50446051F00F0E3F9006879
:10063000002C14BF446870BD002C18BFAC423CBFF6
:1006400020466468F8D301680A18AA4218BF4560BA
:1006500003D12A6805461144016028684119A14266
:100660001CBF6C6070BD61686960216808442860C7
:1006700070BD2DE9F04705460C46C86820F42010EF
:1006800040F48000C860800602D5084600F0FFFAFA
:10069000E06841F282014FF0FF390140022903D0A6
:1006A000204600F09DFAB5E000F42041B1F5004F7E
:1006B0000FD1C00306D56168E06A884200D80846B9
:1006C000606006E02069E06260606069FFF77FFFBC
:1006D000A061A0680022EEB200280DDAE1688B0567
:1006E0000AD4C043A06041F490302260E0606068AA
:1006F000411C61600670A5E0E0689046226040F40D
:100700000050E060206968BB6069FFF752FF012775
:1007100004F12405A0B1A08910F4407F08D0E0695D
:1007200000F0B3F9206118B1E06840F4006016E011
:10073000E7612561E06820F4407040F480600EE0DD
:10074000E06900F0A2F900282061F1D0E06840F4EF
:10075000006010F4407FE06002D140F48070E060FF
:1007600020696060E06825696FF0010AC1051FD546
:100770006168E06A884200D80846411B04D02246DE
:10078000284600F037FAF0BBE068010203D5E562C5
:10079000C4E9015854E0691CE1626160E16940F418
:1007A0008030491EC4E9021030462E70BDE8F08743
:1007B000010202D500F480320AE06068411C6160E9
:1007C0000670E0680A2E40F48030E06006D0002217
:1007D000E16A6068814203D90B4602E00122F7E733
:1007E0000346A7895B1B7F0503D4E7699F4200DDB1
:1007F000E2B1814200D80146E5620F1AC4E901580E
:10080000002B09DD00E005E022461946284600F0ED
:10081000F1F908B14846C9E747B1A069E5626560EA
:10082000C01BA061E06840F01000E060E0680002DA
:1008300008D56168A069E562491B08446560A0614C
:100840005046B3E73046B1E770B5C468A50713D08A
:10085000650211D4B2F5807F09D0B2F5007F06D0D1
:10086000B2F5806F08D1012300F1240106E05D1E7E
:100870006FF07F46B54201D3012070BD0161C361B5
:10088000416024F470611143C160002070BD00001C
:100890002DE9F0410C4607461646104600F06EF86A
:1008A0002078611C61280AD0722802D077283CD1B8
:1008B00002E00125002405E00225042402E00824CA
:1008C00048F2020511F8010B2B2806D0622809D046
:1008D00011F8010C74280AD00BE045F0030544F030
:1008E0000204EFE745F0040544F00104EAE744F0B0
:1008F000100438462146FFF73DFE411C15D000216B
:10090000316171604FF40071F560F1617061200731
:1009100004D530460222002100F0E6F8306D40F0A8
:10092000010030653046BDE8F0810020FBE72DE98D
:10093000F0410D460646104C206DC10704D0410819
:1009400004D020F00104F7E722460EE0542000F026
:100950009CF807000ED0206D47F001010843542198
:1009600020653846FFF7B8FC3A4629463046BDE8D0
:10097000F0418DE70020D6E77C0000202DE9F0470C
:1009800004464FF000094FF0FF37C568D4E90486EC
:10099000A80707D0204600F057F93046FFF7F4FDCE
:1009A000002802DA3846BDE8F087280502D540461F
:1009B000FFF738FE4C212046FFF78EFC206D20F01B
:1009C000010020654846EEE710B50446AFF300800D
:1009D0002046BDE81040FFF7DDBB10B500F07EF902
:1009E000BDE8104000F074B900487047780100205D
:1009F0007047000000487047800100207047704732
:100A00007047704738B504460A4600206946AFF380
:100A10000080002808BF38BD02460099204600F03B
:100A2000A4F9012038BD012000F0F3B9F8B5AFF307
:100A30000080054600200C46102000BF0646A8197D
:100A4000A0420DD9324669460020AFF3008007006E
:100A500008BF00F0DEF90098A04218BF0546C4198F
:100A6000FFF7C8FF05600746F01D20F00700461994
:100A7000284600F073F9B44208BFF8BDA21B314606
:100A80003868BDE8F84000F070B970B50646FFF769
:100A9000B1FF056806F10B0020F00704B4429CBFCB
:100AA000002070BD2B466A68BAB11068A04210D30E
:100AB00004F1080188423CBF5068586007D3516870
:100AC000101941601168091B016058601460101D05
:100AD00070BD13465268002AE7D121462846FFF729
:100AE00091FF0028DED170BD2DE9F0410446164685
:100AF0000D464769007B80072ED03846FFF759FD29
:100B000050BB3EB3012E02D0022E25D104E0204678
:100B100000F045F905441DE03846FFF758FDE1684F
:100B2000002841F01001E16005DA204600F058F895
:100B30000120BDE8F081C9030BD56268E16A9142EA
:100B400000D81146A26911442269891A814200DD48
:100B500008460544002D01DA0220EAE7E16A6068F0
:100B6000E268814206D29103E06203D522F40031AB
:100B700041F01002A6690027AE4213DCE16A81420F
:100B800001D90B4600E0034603EB060C2369ACEBEE
:100B9000030CAC4506DD814201D98C4600E0844659
:100BA0009C4505D1A760276042F02000A5620DE0BA
:100BB000AD1BE669AE1B8142A66000D90846C01A8B
:100BC000281A20605819606022F02000034908406C
:100BD000E060002084F84870ABE70000BFCFD7FF8B
:100BE000C16821F4001141F08001C16000218160E1
:100BF000016070472DE9F047814614460E464FF0DC
:100C0000FF383248D5685769054209D03846A1698E
:100C1000FFF7D5FC002811DB2C48C0430540E560F8
:100C20002B46324649463846FFF7B4FCA16920F00E
:100C30000042B21A11440028A16103D02046FFF7F8
:100C4000CFFF4046BDE8F08770B504460569C06A2D
:100C50006168884200D80846E16821F42011E1600B
:100C6000C90312D5A84208D02246411B2846FFF7E7
:100C7000C1FF10B14FF0FF3070BD0020E562C4E944
:100C80000150E06820F48030E060002070BD10B5B5
:100C90000446C06820F02000E060A16AA069884294
:100CA0000DD02046FFF7D0FFE06820F4405040F020
:100CB0001000E060A06AA0612069E062606044F218
:100CC0004001E0688843E06010BD000010000200B1
:100CD000002801D000F03CB87047000010B5014674
:100CE00002A000F07DF8012010BD000053494752DA
:100CF000545245443A2052656469726563743A20DF
:100D000063616E2774206F70656E3A2000000000EA
:100D100010B5431C02E010F8011B71B18107FAD134
:100D20004FF0013202C88C1A8C4314EAC211F9D078
:100D3000C01A0A0603D0C01E10BDC01A10BD0A0496
:100D400001D0801E10BD0902FCD0401E10BD000065
:100D500001491820ABBEFEE7260002000021016019
:100D6000C0E90110704710207047034640688C4668
:100D7000002818BF88423CBF03464068F8D3186873
:100D80001844884207D00CF1030020F00700001D32
:100D9000411A521A0146081D0A60FFF743BC10B5FC
:100DA0000146C268900703D0900607D5886A0AE01A
:100DB00000F03EF801210160881E10BD8B69486873
:100DC00018440B69C01A91F848301BB191F84910CA
:100DD000401A10BD1103FCD50028FADD401E10BDDD
:100DE00070B505460C460A2000E06D1C00F018F8AE
:100DF00035B128780028F8D102E0641C00F010F822
:100E000014B120780028F8D1BDE870400A2000F025
:100E100007B810B500F010F8BDE81040FFF758BF54
:100E200008B569468DF800000320ABBE08BD000080
:100E3000004870477801002010B5012805D0002136
:100E400003A0FFF7CDFF012010BD09A1F8E70000C6
:100E500053494752544D454D3A204F7574206F66A3
:100E60002068656170206D656D6F7279000000000B
:100E70003A2048656170206D656D6F727920636FEF
:100E8000727275707465640000BFFEE77047000001
:100E90002DE9F8470346002294466EE14FF0010821
:100EA00008FA02F4D1F8008008EA0400A0427DD1DB
:100EB000DFF8DCA2D1F80480A8EB0A09D0453AD0CB
:100EC00014DCB8F1030F50D009DCB8F1000F31D0B9
:100ED000B8F1010F1CD0B8F1020F49D120E0B8F1F0
:100EE000110F18D0B8F1120F42D11EE0B9F5881FCA
:100EF00025D006DCB9F5803F20D0B9F5801F37D169
:100F00001AE0B9F5001F18D0B9F5041F30D117E069
:100F1000D1F80CC02DE0D1F80C8008F1040C28E0C9
:100F2000D1F80C8008F1080C23E0D1F80C8008F10E
:100F30000C0C1EE000BF00BF00BF00BF00BF00BF21
:100F4000D1F80880B8F1000F02D14FF0040C0BE08B
:100F5000D1F80880B8F1010F03D14FF0080C1C61E3
:100F600002E04FF0080C5C6103E04FF0000C00E081
:100F700000BF00BFFF2801D8984601E003F1040834
:100F80004646FF2802D84FEA820803E0A2F108088B
:100F90004FEA88084746D6F800804FF00F0909FA53
:100FA00007F928EA09080CFA07F900E088E048EA9E
:100FB0000908C6F80080D1F8048008F08058B8F11C
:100FC000805F7DD100BFDFF8CC81D8F8188048F071
:100FD0000108DFF8C091C9F81880C846D8F8188011
:100FE00008F00108CDF8008000BF00BF4FEAB93813
:100FF0004FEA920958F829504FEA82784FEA187957
:101000004FF00F0808FA09F825EA0805DFF888818B
:10101000434502D14FF0000816E0DFF880814345D8
:1010200002D14FF001080FE0DFF87481434502D18F
:101030004FF0020808E0DFF86C81434502D14FF021
:10104000030801E04FF004084FEA82794FEA19796A
:1010500008FA09F848EA0505DFF84C814FEA9209D9
:1010600048F82950D1F8048008F48038B8F5803F5A
:101070000AD1DFF83881D8F8008048EA0008DFF8A4
:101080002C91C9F8008009E0DFF82081D8F80080B1
:1010900028EA0008DFF81491C9F80080D1F804802C
:1010A00008F40038B8F5003F10D1DFF8008108F1EE
:1010B0000408D8F8008048EA0008DFF8F09000E063
:1010C0005AE009F10409C9F800800DE0DFF8DC807E
:1010D00008F10408D8F8008028EA0008DFF8CC906E
:1010E00009F10409C9F80080D1F8048008F48018D7
:1010F000B8F5801F0ED1DFF8B48008F10808D8F8E1
:10110000008048EA0008DFF8A49009F10809C9F84E
:1011100000800DE0DFF8948008F10808D8F800801E
:1011200028EA0008DFF8849009F10809C9F800806E
:10113000D1F8048008F40018B8F5001F0ED1DFF8CC
:101140006C8008F10C08D8F8008048EA0008DFF845
:101150005C9009F10C09C9F800800DE0DFF84C80C3
:1011600008F10C08D8F8008028EA0008DFF83C9065
:1011700009F10C09C9F80080521CD1F8008028FA46
:1011800002F8B8F1000F7FF489AEBDE8F8870000DF
:10119000000011100010024000080140000C014046
:1011A000001001400014014008000140000401400B
:1011B00010B5C26821EA020302EA010443EA0443CB
:1011C000036110BD0AB1016101E00B0403617047C6
:1011D00001480068704700000C00002003480068C8
:1011E0000349097808440149086070470C00002051
:1011F0001400002010B50848006840F010000649AF
:101200000860052000F070F80F2000F007F800F0EB
:101210002BF8002010BD00000020024070B50446ED
:101220000E4800784FF47A71B1FBF0F00C49096870
:10123000B1FBF0F5284600F018FC08B1012070BDA4
:10124000102C07D200222146501E00F00EF805484F
:10125000046001E00120F2E70020F0E71400002024
:10126000000000201000002070472DE9F05F80464C
:101270000D461646002700F049FE074639462A4625
:10128000334601F00700C0F1070ABAF1040F02D992
:101290004FF0040A01E0C0F1070AD14600F1040A48
:1012A000BAF1070F02D24FF0000A01E0A0F1030AE1
:1012B000D4464FF0010A0AFA09FAAAF1010A0AEA29
:1012C000020A0AFA0CFA4FF0010B0BFA0CFBABF115
:1012D000010B0BEA030B4AEA0B042146404600F0DF
:1012E0001DFEBDE8F09F000000BF00F00702064BA6
:1012F00019684FF6FF031940044B0B4343EA0221E0
:10130000014B196000BF70470CED00E00000FA05CA
:1013100070B504460D460CB9012070BD5A480068EE
:1013200000F00700A8420ED25748006820F00700DE
:101330002843554908600846006800F00700A842A5
:1013400001D00120E9E7207800F0020002281DD139
:10135000207800F00400042805D14C48406840F48F
:10136000E0604A494860207800F00800082805D16C
:101370004648406840F460504449486043484068EB
:1013800020F0F000A168084340494860207800F050
:10139000010078B36068012806D13C48006800F479
:1013A000003090B90120B8E76068022806D13748BC
:1013B000006800F0007040B90120AEE733480068D3
:1013C00000F0020008B90120A7E73048406820F08B
:1013D0000300616808432D494860FFF7F9FE06469F
:1013E00009E0FFF7F5FE801B41F28831884202D9FF
:1013F000032092E707E02548406800F00C00616890
:10140000B0EB810FEDD12048006800F00700A84242
:101410000ED91D48006820F0070028431A490860CB
:101420000846006800F00700A84201D0012074E7D8
:10143000207800F00400042807D11448406820F404
:10144000E060E168084311494860207800F0080036
:10145000082808D10D48406820F46050216940EA0E
:10146000C1000A49486000F019F808494968C1F309
:101470000311074A515CC8400649086006480068E5
:10148000FFF7CCFE002048E7002002400010024099
:101490002A2100080000002010000020F0B585B0CF
:1014A0000FF26C0C9CE8E01001A8A0E8E0101CA56D
:1014B0002D68009500210022002300240020194DF2
:1014C000696801F00C05F5B1042D02D0082D19D181
:1014D00001E0154819E001ADC1F38346AC5D01F4AC
:1014E000803555B10F4D6D68C5F340451DF8052099
:1014F0000D4D6543B5FBF2F302E00C4D04FB05F323
:10150000184602E000BF084800BF00BF05B0F0BDAC
:1015100002030405060708090A0B0C0D0E0F101034
:10152000010200000010024000127A0000093D0094
:10153000F8B504460CB90120F8BD207800F0010090
:10154000002878D0F848406800F00C0004280CD03F
:10155000F548406800F00C00082811D1F2484068B6
:1015600000F48030B0F5803F0AD1EF48006800F405
:10157000003000285FD0606800285CD10120DBE7E4
:1015800000BF6068B0F5803F06D1E748006840F4CE
:101590008030E549086028E0606858B9E248006892
:1015A00020F48030E04908600846006820F480207C
:1015B00008601AE06068B0F5A02F0BD1DA48006827
:1015C00040F48020D84908600846006840F4803024
:1015D00008600AE0D448006820F48030D2490860EE
:1015E0000846006820F48020086000BF606888B169
:1015F000FFF7EEFD054606E0FFF7EAFD401B642815
:1016000001D9032098E7C848006800F4003000289A
:10161000F2D010E0FFF7DCFD054606E0FFF7D8FD4D
:10162000401B642801D9032086E7BF48006800F406
:1016300000300028F2D1207800F00200022857D1B3
:10164000B948406800F00C0050B1B748406800F05D
:101650000C00082818D1B448406800F4803098B9CC
:10166000B148006800F0020020B12069012801D0D3
:10167000012061E7AC48006820F0F800616940EAA9
:10168000C100A949086033E02069E8B10120A749F9
:101690000860FFF79DFD054606E0FFF799FD401B3A
:1016A000022801D9032047E79F48006800F00200A4
:1016B0000028F2D09C48006820F0F800616940EAF8
:1016C000C1009949086013E0002098490860FFF7BD
:1016D0007FFD054606E0FFF77BFD401B022801D990
:1016E000032029E79048006800F002000028F2D1AA
:1016F000207800F0080008282DD1A069B8B1012099
:101700008B490860FFF764FD054606E0FFF760FDC2
:10171000401B022801D903200EE78348406A00F0ED
:1017200002000028F2D0012000F078FB13E0002036
:101730007F490860FFF74CFD054606E0FFF748FDCE
:10174000401B022801D90320F6E67748406A00F0E2
:1017500002000028F2D1207800F00400042873D1A0
:1017600000277148C06900F0805070B900BF6E4812
:10177000C06940F080506C49C8610846C06900F0FB
:101780008050009000BF00BF01276A48006800F445
:101790008070B0B96748006840F48070654908609F
:1017A000FFF716FD054606E0FFF712FD401B642813
:1017B00001D90320C0E65F48006800F4807000286B
:1017C000F2D000BFE068012806D15748006A40F017
:1017D00001005549086227E0E06858B95248006A9C
:1017E00020F00100504908620846006A20F0040019
:1017F000086219E0E06805280BD14B48006A40F008
:101800000400494908620846006A40F00100086285
:101810000AE04548006A20F0010043490862084692
:10182000006A20F00400086200BFE068A0B1FFF782
:10183000CFFC054609E0FFF7CBFC401B41F28831A5
:10184000884202D9032077E622E03748006A00F098
:1018500002000028EFD012E0FFF7BAFC054608E0CE
:10186000FFF7B6FC401B41F28831884201D90320C2
:1018700062E62D48006A00F002000028F0D1012F36
:1018800005D12948C06920F080502749C86100BFB0
:10189000E069C8B32448406800F00C00082860D014
:1018A000E069022848D1002020490866FFF790FC33
:1018B000054606E0FFF78CFC401B022801D90320F7
:1018C0003AE61948006800F000700028F2D1206A5A
:1018D000B0F5803F07D11448406820F40030A1687B
:1018E000084311494860D4E9080108430E49496892
:1018F00021F4741108430C49486001200B49086623
:10190000FFF766FC054607E03DE0FFF761FC401B82
:10191000022801D903200FE60348006800F0007098
:101920000028F2D02FE000000010024000004242E8
:101930008004424200700040002014490866FFF70E
:1019400047FC054606E0FFF743FC401B022801D98F
:101950000320F1E50E48006800F000700028F2D185
:1019600011E0E069012800D1E6E50948466806F47F
:101970008031206A814204D106F47011606A81428C
:1019800001D00120D8E50020D6E500000000424249
:101990000010024010B504460CB9012010BD606A69
:1019A00038B96068B0F5827F00D105E00021E161BF
:1019B00002E0002121616161A06AB0F5005F00D101
:1019C00000BF94F8510028B9002084F85000204648
:1019D00000F04AF8022084F851002068006820F0E6
:1019E000400021680860A08800F48270218901F419
:1019F00004410843A18901F400610843217C01F0FE
:101A000002010843217D01F001010843218B01F40B
:101A100000710843217F01F0380108432021095D4E
:101A200001F080010843218D01F400510843216831
:101A300008600421A06901EA104021684860A06A9A
:101A4000B0F5005F03D1A08D80B2216808612068E5
:101A5000C06920F400602168C86100206065012031
:101A600084F85100002099E7704770B50446254678
:101A7000681EB0F1807F01D301200FE0681E4FF097
:101A8000E02148610F214FF0FF3000F047FA0020BD
:101A90004FF0E021886107200861002070BD00BF81
:101AA000FEE700BFFEE7704770B5002410E0204657
:101AB00000F072F9002000F063F9002504E0002036
:101AC00000F092F9681CC5B2802DF8DB601CC4B22E
:101AD000082CECDB70BD00002DE9F04780460E4677
:101AE00091461F4600240025A9F12000C5B2B8F197
:101AF0007F0F08DDA046082F01D1701CC6B2102F41
:101B000001D1B01CC6B2102F22D13146404600F0A0
:101B10004BF9002407E004EB0511174A505C00F074
:101B200063F9601CC4B2082CF5DB701CC1B24046DE
:101B300000F03AF9002408E004EB051108310E4AE0
:101B4000505C00F051F9601CC4B2082CF4DB11E0C9
:101B50003146404600F028F9002409E005EB450134
:101B600004EB4101054A505C00F03EF9601CC4B230
:101B7000062CF3DBBDE8F0879B2300085B210008FF
:101B80002DE9F04104460F461546984600260FE021
:101B9000AA5D434639462046FFF79EFF04F1080040
:101BA000C4B2782C02DD0024B81CC7B2701CC6B2C7
:101BB000A85D0028ECD1BDE8F081000010B586B02A
:101BC0000020029003900490059000BF5B4880695C
:101BD00040F48050594988610846806900F480507B
:101BE000019000BF00BF00BF0846806940F00400BC
:101BF00088610846806900F00400019000BF00BFC2
:101C000000BF0846806940F004008861084680698A
:101C100000F00400019000BF00BF00BF08468069CB
:101C200040F0040088610846806900F004000190DB
:101C300000BF00BF00BF0846806940F00400886113
:101C40000846806900F00400019000BF00BF00BF9B
:101C50000846806940F0080088610846806900F005
:101C60000800019000BF00BF3548364908600821D0
:101C70003448C1610021816001214161022101617B
:101C8000002181620721C1620021C16001624FF41D
:101C900000718161002141624FF4827029494860DE
:101CA0000846FFF777FE27480068006840F04000CC
:101CB0002449096808602020029002200390012036
:101CC00004900320059002A91F48FFF7E1F8402087
:101CD000029002A91C48FFF7DBF88020029002A9BD
:101CE0001948FFF7D5F8102002900120039002A9AF
:101CF0001548FFF7CDF8022002900120039002A9B9
:101D00001248FFF7C5F801200290039002A90F487E
:101D1000FFF7BEF84FF480300C4910310860012005
:101D20000860002405E00A49085D00F047F8601CDF
:101D3000C4B2192CF7DB06B010BD00000010024041
:101D4000003001402400002000080140000C014048
:101D50009B29000810B58D2000F030F8102000F00D
:101D60002DF8AE2000F02AF810BD10B58D2000F03F
:101D700025F8142000F022F8AF2000F01FF810BD65
:101D800010B50446102141EA241000F017F804F0C1
:101D90000F0000F013F810BD10B5044604F1B001B7
:101DA000C8B200F00BF810BD70B505460C462046D1
:101DB000FFF7F2FF2846FFF7E3FF70BD70B504465A
:101DC00000254FF4801006490860C01005490860DE
:101DD000204600F037F8102001490860284670BD01
:101DE00010080140100C014070B5044600254FF466
:101DF000801007490860022006490860204600F06C
:101E000021F80546102002490860284670BD0000F0
:101E100010080140100C01407047000008B5084947
:101E20000968C9084FF47A72B1FBF2F1414300919D
:101E300000BF00BF00994A1E00920029F9D108BDD9
:101E40000000002010B504464FF480501949086086
:101E50000AE018490868411E164A116020B900209E
:101E600000F02CF8C0B210BD134800688068C0F3C1
:101E700040000028EDD010480068C4604FF4805046
:101E80000C4908600AE00B490868411E094A1160C4
:101E900020B9012000F012F8C0B2E4E7064800685B
:101EA000806800F001000028EDD003480068C06899
:101EB000C0B2D8E7040000202400002010B504467A
:101EC000214602A0FEF78CF9002010BD3C3C2D4FAE
:101ED0004C45442D4552524F522D3E3E20535049C1
:101EE00020B5C8B4FDB3ACCAB1216572726F72433C
:101EF0006F6465203D2025640A000000704710B51E
:101F0000FFF76CF910BD704700BFFEE7024800689C
:101F1000C0F30220704700000CED00E010B500286F
:101F200004DB0A07130E054A135406E00A07140ED1
:101F3000034A00F00F031B1FD45410BD00E400E05F
:101F400018ED00E00149086070470000080000201B
:101F500010B504464FF47A7104FB01F000F002F86A
:101F600010BD000070B5034600224FF0E0267569F1
:101F70000D4E366803FB06F44FF0E026B16910E021
:101F80004FF0E026B06988420BD0884202D20E1A88
:101F9000324402E02E1A0E4432440146A24200D3DB
:101FA00000E0EDE700BF70BD080000208A68002A4D
:101FB00001DCFEF75EBB521E8A604A68C0B2531C49
:101FC0004B6010707047000000B585B000BF00BFC7
:101FD0000F48806940F008000D4988610846806913
:101FE00000F00800009000BF00BF00BF202001905B
:101FF000012002900220049001A90648FEF748FF44
:10200000002220210348FFF7DDF805B000BD0000E5
:1020100000100240000C01400024FFF7EBF84FF4E1
:10202000E01000F04FF84820FFF78CFFFFF7CCFFDF
:10203000FFF7C4FD4FF47A70FFF78AFFFFF734FD16
:1020400010231CA200210846FFF79AFD102319A2B5
:1020500002210020FFF794FD102316A20421002086
:10206000FFF78EFD102313A206210020FFF788FD45
:102070004FF47A70FFF76CFFFFF76CFE4FF47A7045
:10208000FFF766FFFFF771FE12E00A20FFF760FF1F
:10209000601C84B2142C0BDB142094FBF0F100FBC9
:1020A000114028B900BF20210548FFF781F800BF83
:1020B000EBE7000068656C6C6F20776F726C6400F2
:1020C000000C014030B58FB005460124282105A839
:1020D000FEF702F914216846FEF7FEF8012005908C
:1020E000000406900020079002200C90C1030D917F
:1020F0000E9505A8FFF71CFA04460CB100BFFEE7D9
:102100000F20009002200190002002904FF4806088
:1021100003900020049002216846FFF7F9F8044676
:102120000CB100BFFEE70FB030BD000000000000A2
:102130000000010203040607080900000000010274
:102140000304AED580A83FD300408D142002A1C85F
:10215000DA1281EFD9F1DB30A4A6AF000000000055
:10216000000000BE00000000060006000028FE2857
:10217000FE28000098F49E640000CC2CD0CC000017
:10218000709E9A640000000006000000007C82003F
:10219000000000827C000000387C38000000107CC9
:1021A000100000000000C00000001010101000001F
:1021B0000080000000008060180600007C82827CA5
:1021C000000084FE80000000C4A2928C00004492B3
:1021D000926C0000704CFE4000009E9292620000E3
:1021E0007C929264000006E2120E00006C92926CE7
:1021F00000004C92927C00000048000000008048E3
:102200000000000010284482000028282828000030
:1022100082442810000004A2120C00001CE292FC70
:102220000000FC2222FC0000FE92926C00007C82E6
:1022300082440000FE82827C0000FE9292820000B6
:10224000FE12120200007C8292740000FE1010FE4A
:10225000000082FE820000006080807E0000FE1090
:1022600028C60000FE8080800000FE0C0CFE0000EE
:10227000FE0C30FE0000FE8282FE0000FE12120CF8
:1022800000007CA2C2FC0000FE32528C00004C9286
:102290009264000002FE020200007E80807E000048
:1022A0001EE0E01E0000FE6060FE0000C63838C67A
:1022B000000608F008060000C2B29A86000000FE80
:1022C000820000061860800000000082FE0000000E
:1022D00004020400000080808080000000060000EE
:1022E000000040B0B0F00000FE90906000006090F0
:1022F00090900000609090FE000060B0B020000060
:1023000010F814100000205050F00000FE10F000F3
:10231000000000E8000000000000E8000000FE20CF
:102320005090000080FE80000000F010F0F00000EF
:10233000F01010E00000609090600000F09090605D
:102340000000609090F00000F02010100000A0B09D
:10235000D050000010F890000000708080F0000065
:1023600030C0C0300030C070C0300000906060905D
:102370000000304040F0000090D0B090000010EE1F
:102380008200000000FE0000000082EE100000004D
:102390000402040200007C7C7C00000000000000BD
:1023A0000000000000000000000000000000FC0031
:1023B0000000000000000C0000000000100C100CD9
:1023C00000000000000000000000000010FC10FCF5
:1023D00010000000041F041F040000003048FC88A7
:1023E0003000000006081F08070000001824D8303D
:1023F0000C0000000C030609060000009864980019
:1024000080000000070809060900000000140C0005
:1024100000000000000000000000000000E01804C0
:102420000000000000030C1000000000000418E091
:102430000000000000100C03000000006080F0802D
:102440006000000003000700030000008080F080AF
:1024500080000000000007000000000000000000F5
:102460000000000000140C0000000000808080804C
:10247000000000000000000000000000000000005C
:1024800000000000000C0C00000000000000C03044
:102490000C0000001806010000000000F00808F021
:1024A0000000000007080807000000000010F80006
:1024B0000000000000000F000000000030088870DD
:1024C000000000000C0B0808000000003088887035
:1024D00000000000060808070000000000C030F8F7
:1024E000000000000302020F02000000F8484888C4
:1024F000000000000608080700000000F08888308F
:102500000000000007080807000000000808C8389D
:1025100000000000000E01000000000070888870BC
:10252000000000000708080700000000708888F01D
:1025300000000000060808070000000000606000BE
:1025400000000000000C0C000000000000606000B3
:102550000000000000140C0000000000804020106B
:1025600008000000000102040800000020202020D4
:1025700000000000010101010000000008102040DF
:10258000800000000804020100000000300888708C
:102590000000000000000D0000000000F028E80826
:1025A000F00000000709090A0500000000E018E03B
:1025B000000000000F0202020F000000F888888867
:1025C000700000000F08080807000000F008080865
:1025D000300000000708080806000000F80808108E
:1025E000E00000000F08080403000000F888888855
:1025F000080000000F08080808000000F888888814
:10260000080000000F00000000000000F0080808AB
:1026100030000000070808050F000000F8808080E7
:10262000F80000000F0000000F0000000008F8088C
:102630000000000000080F0800000000000000F883
:10264000000000000608080700000000F88060187D
:10265000000000000F00030C00000000F800000064
:10266000000000000F08080808000000F8E000E083
:10267000F80000000F000F000F000000F830C0004D
:10268000F80000000F0001060F000000F008080825
:10269000F00000000708080807000000F888888894
:1026A000700000000F00000000000000F0080808A3
:1026B000F000000007080A040B000000F888888872
:1026C000700000000F0000010E0000003048880874
:1026D0003000000006080809060000000808F80895
:1026E0000800000000000F0000000000F8000000DB
:1026F000F8000000070808080700000038C000C004
:102700003800000000010E0100000000F800F80091
:10271000F8000000000F000F00000000186080604B
:10272000180000000C0300030C000000186080601B
:102730001800000000000F00000000000808886872
:10274000180000000C0B0808080000000000FC0442
:102750000400000000001F10100000000C30C0003A
:102760000000000000000106180000000404FC0046
:102770000000000010101F00000000000008040806
:102780000000000000000000000000000000000049
:1027900000000010101010101000000000040800CD
:1027A00000000000000000000000000080404080A9
:1027B000000000000609090708000000F84040403A
:1027C000800000000F08080807000000804040401B
:1027D0008000000007080808040000008040404016
:1027E000F8000000070808080F0000008040404083
:1027F00080000000070909090500000040F04808B2
:1028000000000000000F0000000000008040408039
:10281000400000000A15151408000000F840404070
:10282000800000000F0000000F0000000000D80032
:102830000000000000000F00000000000000D800B1
:102840000000000010100F0000000000F8000080E1
:10285000400000000F020304080000000000F80020
:102860000000000000000F0000000000C040804099
:10287000800000000F000F000F000000C04040402B
:10288000800000000F0000000F000000804040406A
:10289000800000000708080807000000C040404012
:1028A000800000001F04040403000000804040403A
:1028B000C0000000030404041F00000000C08040AA
:1028C00040000000000F0000000000008040404079
:1028D000800000000409090A0400000040F84000DC
:1028E000000000000007080800000000C000000011
:1028F000C0000000070808080F000000C00000002A
:10290000C000000000030C0300000000C000C00075
:10291000C0000000010E010E010000004080008098
:10292000400000000804030408000000C00000008C
:10293000C000000010130C030000000040404040A5
:10294000C0000000080C0A090800000000807C0498
:102950000000000000001F10000000000000FE004A
:102960000000000000001F000000000000047C8048
:102970000000000000101F00000000000804040810
:10298000040000000000000000000000FCFCFCFC53
:10299000000000000F0F0F0F000000AED580A83F11
:1029A000D300408D142002A1C8DA1281EFD9F1DBE7
:1029B00030A4A6AF3A7474003A7474003A74740088
:1029C000E029000800000020240000002801000881
:1029D000042A000824000020B40700004401000875
:1029E0000024F40000A0000000000000000000002F
:1029F00010000000010000000000000000000000C6
:042A000000000000D2
:04000005080000ED02
:00000001FF
